:020000040800F2
:10000000680500209D010008030F0008990E0008F4
:10001000010F0008A902000871120008000000008A
:10002000000000000000000000000000070F0008B2
:10003000AB02000800000000050F0008090F0008CF
:10004000B7010008B7010008B7010008B7010008B0
:10005000B7010008B7010008B7010008B7010008A0
:10006000B7010008B7010008B7010008B701000890
:10007000B7010008B7010008B7010008B701000880
:10008000B7010008B7010008B7010008B701000870
:10009000B7010008B7010008B7010008B701000860
:1000A000B7010008B7010008B7010008B701000850
:1000B000B7010008B7010008B7010008B701000840
:1000C000B7010008B7010008B7010008B701000830
:1000D000B701000865120008B7010008B701000861
:1000E000B7010008B7010008B7010008B701000810
:1000F000B7010008B7010008B7010008B701000800
:10010000B7010008B7010008B7010008B7010008EF
:10011000B7010008B7010008B7010008B7010008DF
:10012000B7010008B7010008B7010008B7010008CF
:10013000B7010008B7010008B7010008B7010008BF
:10014000B7010008B7010008B7010008B7010008AF
:10015000B7010008B7010008B7010008B70100089F
:10016000B7010008B7010008B7010008B70100088F
:10017000B7010008B7010008B7010008000000003F
:10018000B7010008B7010008DFF80CD000F07AF8DA
:1001900000480047B1120008680500200648804763
:1001A00006480047FEE7FEE7FEE7FEE7FEE7FEE75C
:1001B000FEE7FEE7FEE7FEE7950F0008890100086D
:1001C0002DE9F05F0546002092469B46884606468C
:1001D000814640241BE0284641464746224600F01F
:1001E00041F853465A46C01A914110D31146184659
:1001F000224600F028F82D1A67EB01084F462246E8
:100200000120002100F01FF817EB00094E41201ECD
:10021000A4F10104DFDC484631462A464346BDE8E6
:10022000F09FD2B201E000F8012B491EFBD27047CB
:100230000022F6E710B513460A4604461946FFF7B2
:10024000F0FF204610BD202A04DB203A00FA02F11C
:10025000002070479140C2F1200320FA03F31943B4
:1002600090407047202A04DB203A21FA02F0002156
:10027000704721FA02F3D040C2F1200291400843B6
:1002800019467047064C074D06E0E06840F0010350
:1002900094E8070098471034AC42F6D3FFF778FF94
:1002A000FC1200081C130008FEE77047704790F826
:1002B0003510022903D080214165012070470521B6
:1002C00080F835100068016821F00101016000200C
:1002D000704700002DE9F84F00224FF00108032578
:1002E0004FF00F0E0B6808FA02F42340A3426ED1C0
:1002F0004E68012E05D0022E03D0112E01D0122EF1
:1003000012D186684FEA420C05FA0CF7BE43CF685B
:1003100007FA0CF7374387604668A6430C79C4F3A5
:100320000014944034434460C668570005FA07FC43
:100330008C6826EA0C06BC403443C4604C68022C2E
:1003400001D0122C13D1D40800EB8404A346D4F8B6
:10035000209054074FEAD46A0EFA0AF629EA0609F1
:100360000E6906FA0AF646EA0906CBF82060066826
:100370000C7926EA0C0604F00304BC403443046004
:100380004C68E40065D5364C266846F48046266005
:10039000246822F0030604F480440094314C344471
:1003A000A446D4F808489607370F0EFA07F6B44368
:1003B0002D4EB04201D1002624E02C4EB04201D196
:1003C00001261FE02A4EB04202D102261AE040E088
:1003D000284EB04201D1032614E0274EB04201D18D
:1003E00004260FE0254EB04201D105260AE0244E36
:1003F000B04201D1062605E0224EB04201D10726C7
:1004000000E00826BE402643CCF808681E4E34683B
:100410004F689C43FF0300D51C4334601A4C241DD5
:1004200026684F689E43BF0300D51E432660164EC4
:10043000083634684F689C43FF0200D51C43346083
:10044000114E0C3634684F689C43BF0200D51C43E4
:100450003460521C102AFFF445AFBDE8F88F00004D
:1004600044380240003001400000024000040240D5
:1004700000080240000C024000100240001402403C
:1004800000180240001C0240003C01400148806806
:10049000704700001800002002488168027811446B
:1004A00081607047180000200B4810B5016841F4C6
:1004B00000710160016841F480610160016841F4EC
:1004C00080710160032000F06FF8002000F006F852
:1004D00000F024F8002010BD003C024070B50D4D26
:1004E00004464FF47A712878B1FBF0F00A490968A4
:1004F000B1FBF0F000F002FB48B9102C07D200224B
:100500002146501E00F030F800206C6070BD0120C4
:1005100070BD000018000020240000200A4808B523
:10052000016841F480410160006800F4804000905F
:100530000548001F016841F080510160006800F02B
:100540008050009008BD000044380240002809DBBC
:1005500000F01F02012191404009800000F1E020DD
:10056000C0F8001170470000F0B40E4B1B680C4639
:10057000C3F30223C3F10705042D00D90425191D77
:10058000072901D2002300E0DB1E012606FA05F14F
:10059000491E214099409E40761E16403143F0BCD2
:1005A00000F067BE0CED00E0064900F007020868A5
:1005B0004FF6FF03184040EA0220034A1043086048
:1005C000704700000CED00E00000FA052DE9F0474F
:1005D0000E46050065D0DFF81481D8F80000F7B2A8
:1005E00000F00F00B04207D288F80070D8F8000081
:1005F00000F00F00B04254D128683D4C810712D55D
:10060000400703D5206840F4E050206028780007B8
:1006100003D5206840F4604020602068A96820F07D
:10062000F000084320602878C0072DD03049686862
:100630000839012812D0022813D0032811D00968E4
:10064000890700292DDA216821F003010143216087
:10065000FFF71CFF814641F2883A0EE009688903E2
:10066000EFE709688901ECE7FFF710FFA0EB09014C
:10067000514502D90320BDE8F0872068696800F081
:100680000C00B0EB810FEFD1D8F80010404601F01C
:100690000F01B14207D90770006800F00F00B042A7
:1006A00001D00120E7E72878400705D52068E968F0
:1006B00020F4E050084320602878000706D5206821
:1006C000296920F4604040EAC100206000F038F859
:1006D0002168084AC1F30311515CC840064908600B
:1006E00006480068FFF7FAFE0020C4E7003C02401D
:1006F00008380240E4120008240000201C000020FA
:100700000448054900680968044AC1F38221515C24
:10071000C84070472400002008380240F412000846
:100720000448054900680968044AC1F34231515C34
:10073000C84070472400002008380240F412000826
:10074000154810B5006810F00C02144813D0411081
:10075000042A0FD0082A0ED10F4C241F22682368C8
:1007600002F03F025B0207D52068C0F38810A0FBAF
:10077000010106E0084610BD2168C1F38811A1FB04
:1007800000010023FFF71CFD2168C1F30141491C52
:100790004900B0FBF1F010BD083802400024F4001D
:1007A0002DE9F84F04006ED02078DFF83C93C007A5
:1007B000A9F104054AD009F104000168C1F38101DF
:1007C000012908D00068C0F3810002280AD1D9F8B5
:1007D0000000400206D52868800337D560680028ED
:1007E000E1D033E06068B0F5803F10D0B0F5A02FC5
:1007F000286810D020F480302860286820F48020F9
:1008000028606068A8B1FFF741FE06460DE0286841
:1008100040F48030F4E740F480202860F7E700BF20
:10082000FFF734FE801B642873D828688003F7D54F
:100830000CE0FFF72BFE064605E000BFFFF726FEA3
:10084000801B6428F0D828688003F7D42078DFF86C
:100850009C8280074FF0000A3ED5A348001D016826
:1008600011F00C0F08D00068C0F3810002280BD1F2
:10087000D9F80000400207D42868800716D5E06840
:10088000012800D112E02BE1E068B8B10120C8F8DE
:100890000000FFF7FBFD064605E000BFFFF7F6FD91
:1008A000801B0228C0D828688007F7D528682169EE
:1008B00020F0F80040EAC10028600DE0C8F800A070
:1008C000FFF7E4FD064604E0FFF7E0FD801B022889
:1008D0001FD828688007F7D42078000722D5824ED9
:1008E00083486169703671B101210160FFF7CEFD67
:1008F000074604E0FFF7CAFDC01B022809D830688C
:100900008007F7D50EE0C0F800A0FFF7BFFD07464F
:1009100005E082E0FFF7BAFDC01B02287DD83068F1
:100920008007F7D42078400768D5DFF8BCB10027EE
:100930000BF13C0BDBF80000C0000BD4DBF800101F
:1009400041F08051CBF80010DBF80000012700F0E7
:1009500080500090674E3068C00510D4306840F475
:1009600080703060FFF792FD009005E0FFF78EFD8C
:100970000099401A022850D83068C005F6D55A4E62
:10098000A0686C3601280FD00528306810D020F000
:1009900001003060306820F004003060A068B8B119
:1009A000FFF774FD00900FE0306840F00100F4E7BD
:1009B00040F004003060F7E7FFF768FD0099411A46
:1009C00041F28830814266D830688007F4D50EE065
:1009D000FFF75CFD009007E0FFF758FD0099411A12
:1009E00041F28830814256D830688007F4D42FB164
:1009F000DBF8001021F08051CBF80010A069C8B3DB
:100A00003949091D0968C1F3810102294AD0022828
:100A1000504607D0C8F8600000E03CE0FFF736FD24
:100A200004463BE04746C8F86000FFF72FFD064646
:100A300005E000BFFFF72AFD801B02282BD828689D
:100A40008001F7D4D4E907010843A16A2A4A49087A
:100A500002EB0141626A41EA8211084394F82C10CA
:100A600040EA0161C9F8001001203866FFF70EFD69
:100A7000044606E036E000BFFFF708FD001B022831
:100A800009D828688001F7D52CE000BFFFF7FEFCED
:100A9000001B022802D90320BDE8F88F28688001D6
:100AA000F4D41FE00128F7D0D9F80000E26900F47F
:100AB0008001914214D1226A00F03F0191420FD18E
:100AC00047F6C071626A0140914209D1A26A00F4FE
:100AD0004031914204D1E16A00F07060884201D057
:100AE0000120D9E70020D7E7043802400000474240
:100AF000800E4742007000400000FFFF10B5401E0E
:100B0000B0F1807F01D3012010BD4FF0E02460617F
:100B10000F21601700F0ADFB0020A06107202061CD
:100B2000002010BD7047000070B5026804461068D0
:100B3000D168536910F00F0F52D003F0010501F492
:100B400090762E435FD0C20705D0CA0503D5E26B6D
:100B500042F00102E263420705D5DA0703D0E26BF7
:100B600042F00202E263820705D5DA0703D0E26BA6
:100B700042F00402E263020707D501F020022A4393
:100B800003D0E26B42F00802E263E26B002A33D04A
:100B9000800604D5880602D5204600F01FFA20689A
:100BA0004069E16BC0F38010090700D428B32046E8
:100BB00000F006FA2068416949061AD5416921F01A
:100BC00040014161606BA0B11B490165606BFFF79B
:100BD0006EFB002810D0606B016DBDE870400847C7
:100BE000830610D58B060ED52046BDE8704000F078
:100BF000F5B92046FFF796FF70BD2046FFF792FF3C
:100C00000020E06370BD030606D50B0604D5204620
:100C1000BDE8704000F0C2BA4006F3D54806F1D5F1
:100C2000D168204621F04001D160202184F839109C
:100C300000F031F970BD0000B10F000870B504007C
:100C400004D094F83900002510B106E0012070BDF1
:100C500084F83850204600F023F8242084F8390026
:100C60002068C16821F40051C160204600F002FAFA
:100C70002068016921F4904101612068416921F0F7
:100C80002A0141612068C16841F40051C160E563F7
:100C9000202084F8390084F83A00002070BD00005C
:100CA00010B586B0044614216846FFF7C1FA14490E
:100CB0002068884221D11348016841F01001016089
:100CC000006800F0100005900E481438016841F0EB
:100CD000010101600068694600F0010005904FF4D1
:100CE000C060009002200190012002900320039038
:100CF000072004900448FFF7EDFA06B010BD00008D
:100D000000100140443802400000024090F83A30A0
:100D1000202B22D1F9B1F2B190F83830012B1CD040
:100D200081628285C2850021C163222280F83A2037
:100D300080F838100168CA6842F48072CA6001689D
:100D40004A6942F001024A610068C16841F020012D
:100D5000C1600020704701207047022070470000EA
:100D60002DE9F0411A4C00254FF4807620784FF69B
:100D7000FF7714280BD3257031461648FFF758FA31
:100D80003B461322A11C144800F028F818E0114932
:100D900062780A54401CC2B28818227010F8011CF4
:100DA0000A290DD110F8020C0D2809D13B4609493A
:100DB000094800F013F8257031460648FFF738FA65
:100DC000BDE8F04102490122491C0348FFF79EBFDC
:100DD0000000002028000020280100202DE9F84311
:100DE000044690F839001F4616460D46202850D17B
:100DF000B5B1AEB194F8380001284AD0012084F88A
:100E000038004FF00008C4F83C80212084F83900F5
:100E1000FFF73CFBA6848146E68484F8388026E010
:100E20000120BDE8F883E08C401EE084A0684B46BA
:100E3000B0F5805F4FF000024FF080012046009730
:100E400003D000F0DCF9E8B90DE000F0D8F9C8B93A
:100E500028882168C0F308004860206908B16D1C2B
:100E600005E0AD1C03E0216815F8010B4860E08C3B
:100E70000028D8D14B46002240212046009700F0A0
:100E8000BEF908B10320CCE7202084F83900002007
:100E9000C7E70220C5E77047FEE70000094808B52C
:100EA000016841F080010160016801F0800100915A
:100EB000016841F001010160006800F0010000904C
:100EC00008BD0000303802400C4810B50A490160E6
:100ED0004FF4E1314160002181600C22C160C0E922
:100EE00004128161C161FFF7A9FE002803D0BDE8AB
:100EF0001040FFF7DBB910BD0010014028010020B1
:100F0000FEE7704770477047FFF7C6BA30B593B039
:100F100030216846FFF78CF914210CA8FFF788F9F7
:100F20001A480025016841F080510160006800F016
:100F3000805011901648016841F4804101600068BA
:100F4000022400F4804011900120009000040190E0
:100F50008001CDE90640082008904FF4A870CDE943
:100F6000090404200B906846FFF71AFC0CA90F2017
:100F700081E831004FF4A0500F90E002109005215D
:100F80000CA8FFF723FB13B030BD0000403802402F
:100F9000007000400548016841F470010160034998
:100FA0004FF00060803908607047000088ED00E075
:100FB00010B5806B0021C185C184FFF7B3FD10BD62
:100FC0000168CA6822F49072CA6001684A6922F016
:100FD00001024A61202180F83A10704710B590F85C
:100FE0003A10222901D0022010BD8168B1F5805F3E
:100FF00011D00169002901681FD0496801F07F0301
:10100000816A4A1C82620B70C18D491E0904090C59
:10101000C18518D02BE00269816A002A02685268F3
:1010200005D0D2B20A80816A491C8162ECE7C2F322
:1010300008020A80816A891CF7E74A68816A4B1CAA
:1010400083620A70E0E70168CA6822F02002CA6081
:101050000168CA6822F48072CA6001684A6922F095
:1010600001024A61202180F83A10FFF779FE002042
:1010700010BD00002DE9F041044600680169E268F6
:1010800021F44051114301612169A068E2690843DC
:101090006169114308432168CA6849F20C639A43A5
:1010A0000243CA6020684169A26921F4407111437A
:1010B0004161E069192764253226B0F5004F354AB1
:1010C000354920684FF0000806D0884201D0904290
:1010D00036D1FFF725FB35E0884201D0904202D19E
:1010E000FFF71EFB01E0FFF70BFB61684A18A0FB4E
:1010F000070148EB0803FFF763F80146B0FBF5F082
:101100000201B1FBF5F06FF01803584301EB8000CA
:1011100006EBC000B0FBF5F000F0F80002EB400277
:10112000B1FBF5F0584301EB800006EBC000B0FBCB
:10113000F5F000F00700216810448860BDE8F081F8
:10114000FFF7DEFA61688B0F8A00A0FB0701FFF74B
:1011500037F80146B0FBF5F06FF01802504301EB91
:10116000800006EB0010B0FBF5F000F0F002B1FBE0
:10117000F5F002EB0012B1FBF5F06FF018035843E5
:1011800001EB800006EB0010B0FBF5F000F00F0063
:10119000D1E70000001401400010014090F8391020
:1011A000212901D0022070478168B1F5805F016A72
:1011B0000BD04A1C0262026809785160C18C491E3A
:1011C0000904090CC1840ED017E009880268C1F334
:1011D0000801516001690029016A02D0491C0162BD
:1011E000ECE7891CFBE70168CA6822F08002CA604C
:1011F0000068C16841F04001C160002070472DE9DE
:10120000F041984617460E460446069D1DE0681CB0
:101210001BD02DB1FFF73AF9A0EB0800A84214D972
:101220002068C16821F4D071C1602068416921F053
:1012300001014161202084F8390084F83A0000203F
:1012400084F838000320BDE8F0812068006836EAA1
:10125000000004D00020B842D9D00020F3E70120DC
:10126000F9E700000148FFF75FBC000028010020FB
:10127000FEE70907090E002804DB00F1E02080F8F2
:101280000014704700F00F0000F1E02080F8141DFA
:10129000704702E008C8121F08C1002AFAD170473F
:1012A0007047002001E001C1121F002AFBD17047E6
:1012B000FFF7FAF8FFF72AFEFFF7F0FDFFF704FE4D
:1012C000002201212520FFF74FF92520FFF73EF9E5
:1012D000012202490248FFF719FDFEE70100002044
:1012E00028010020000000000000000001020304AB
:1012F0000607080900000000010203041C1300088F
:10130000000000202800000092120008441300088A
:101310002800002040050000A21200080000CAFDBD
:10132000BEDDD2E7B3F628B4F3D3DA3230290D0AA2
:10133000000000000100000010000000000000009C
:041340000024F40091
:040000050800018965
:00000001FF
